:100000000C9463000C948B000C948B000C9496055C
:100010000C9496050C9496050C948B000C948B0014
:100020000C948B000C948B000C948B000C948B0024
:100030000C948B000C948B000C948B000C948B0014
:100040000C944C050C948B000C941A050C94F4043D
:100050000C948B000C948B000C948B000C948B00F4
:100060000C948B000C948B000000000024002700EF
:100070002A0000000008000201000003040700003D
:1000800000000000000000000000250028002B00F8
:1000900000000000230026002900040404040404D6
:1000A0000404020202020202030303030303010227
:1000B00004081020408001020408102001020408F6
:1000C00010201A06100611241FBECFEFD8E0DEBFA5
:1000D000CDBF11E0A0E0B1E0E2E8F7E102C0059099
:1000E0000D92A432B107D9F724E0A4E2B1E001C037
:1000F0001D92AE3CB207E1F710E0C2E6D0E004C0CA
:100100002197FE010E94A90BC136D107C9F70E94B1
:10011000F6060C94B40B0C940000CF92DF92EF9291
:10012000FF920F931F93CF93DF936C017A018B01A2
:10013000C0E0D0E0CE15DF0589F0D8016D918D01CA
:10014000D601ED91FC910190F081E02DC601099559
:10015000892B11F47E0102C02196ECCFC701DF91FB
:10016000CF911F910F91FF90EF90DF90CF90089566
:10017000FC01538D448D252F30E0842F90E0821BAD
:10018000930B541710F0CF96089501970895FC0132
:10019000918D828D981761F0828DDF01A80FB11DBE
:1001A0005D968C91928D9F5F9F73928F90E00895E2
:1001B0008FEF9FEF0895FC01918D828D981731F09C
:1001C000828DE80FF11D858D90E008958FEF9FEFF0
:1001D0000895FC01918D228D892F90E0805C9F4FC6
:1001E000821B91098F739927089587E791E00E94F8
:1001F000E90021E0892B09F420E0822F0895FC0119
:10020000848DDF01A80FB11DA35ABF4F2C91848D9F
:1002100090E001968F739927848FA689B7892C93D4
:10022000A089B1898C9180648C93938D848D98136F
:1002300006C00288F389E02D80818F7D8083089538
:10024000EF92FF920F931F93CF93DF93EC0181E026
:10025000888F9B8D8C8D981305C0E889F9898081E2
:1002600085FD24C0F62E0B8D10E00F5F1F4F0F731E
:100270001127E02E8C8DE8120CC00FB607FCFACFC8
:10028000E889F989808185FFF5CFCE010E94FF00C2
:10029000F1CF8B8DFE01E80FF11DE35AFF4FF08285
:1002A0000B8FEA89FB898081806207C0EE89FF8914
:1002B0006083E889F98980818064808381E090E0AF
:1002C000DF91CF911F910F91FF90EF900895CF9301
:1002D000DF93EC01888D8823C9F0EA89FB8980814E
:1002E00085FD05C0A889B9898C9186FD0FC00FB620
:1002F00007FCF5CF808185FFF2CFA889B9898C9161
:1003000085FFEDCFCE010E94FF00E7CFDF91CF91B7
:10031000089580E090E0892B29F00E94F50081117A
:100320000C940000089590E0FC01EE58FF4F3491CA
:10033000FC01E255FF4F2491FC01E656FF4FE4918A
:10034000EE2309F43BC0332339F1333091F038F414
:100350003130A9F0323001F584B58F7D12C03730CD
:1003600091F03830A1F03430B9F4809180008F7D65
:1003700003C0809180008F77809380000DC084B58A
:100380008F7784BD09C08091B0008F7703C08091C2
:10039000B0008F7D8093B000F0E0EE0FFF1FEA57B2
:1003A000FF4FA591B4918FB7F894EC91611103C000
:1003B00020952E2301C02E2B2C938FBF0895CF9311
:1003C000DF9390E0FC01E255FF4F2491FC01E656DB
:1003D000FF4F8491882361F190E0880F991FFC0101
:1003E000E859FF4FC591D491FC01EA57FF4FA59101
:1003F000B491611109C09FB7F89488812095822338
:100400008883EC912E230BC0623061F49FB7F8947F
:100410003881822F809583238883EC912E2B2C9317
:100420009FBF06C08FB7F894E8812E2B28838FBF1B
:10043000DF91CF9108953FB7F89480916501909135
:100440006601A0916701B091680126B5A89B05C01F
:100450002F3F19F00196A11DB11D3FBFBA2FA92F43
:10046000982F8827820F911DA11DB11DBC01CD01C0
:1004700042E0660F771F881F991F4A95D1F70895AC
:100480008F929F92AF92BF92CF92DF92EF92FF92A4
:100490006B017C010E941B024B015C01C114D10461
:1004A000E104F104F1F00E941B02DC01CB01881988
:1004B0009909AA09BB09883E9340A105B10570F3CB
:1004C00021E0C21AD108E108F10888EE880E83E025
:1004D000981EA11CB11CC114D104E104F10419F748
:1004E000DDCFFF90EF90DF90CF90BF90AF909F90C7
:1004F0008F90089520916B0130916C012817390776
:1005000071F49091690180916A01981741F0E0912E
:100510006901F0E0EC5DFE4F808190E008958FEF7F
:100520009FEF089508951F93CF93DF93DC015C96AE
:100530002D913C915D972115310539F481E090E0D2
:1005400013969C938E9312973DC05196ED91FC911A
:10055000529750969C915097892F80951FB75E9621
:100560004C915E9741FB772770F941FD6095F894B7
:100570004081772311F0492B01C048234083E901D2
:100580002197F1F748E0508160FF02C0592B01C06C
:1005900058235083E9012197F1F76695415099F767
:1005A000772321F090818923808303C08081982B59
:1005B00090831FBF5C968D919C915D970197F1F799
:1005C00021E030E0C901DF91CF911F910895209182
:1005D0006B0130916C012817390771F480916A0121
:1005E0002091690190E0805C9F4F821B910960E43B
:1005F00070E00E94950B089580E090E008952091AE
:100600006B0130916C0128173907B9F49091690199
:1006100080916A01981789F0E0916901F0E0EC5D42
:10062000FE4F80812091690130E02F5F3F4F2F7393
:1006300033272093690190E008958FEF9FEF08958D
:10064000E0916B01F0916C01E817F90769F4A38957
:10065000B4899C918589809589238C9310926C0133
:1006600010926B0181E0089580E00895089580E084
:1006700090E00895FC0181818630E9F466307105CF
:10068000D1F4DF0112969F012A5F3F4FA217B307F3
:1006900019F09D918927FACF908189130CC082812E
:1006A0008093B40483818093B50484818093B604DD
:1006B00085818093B70408956F927F928F929F9265
:1006C000AF92BF92CF92DF92EF92FF920F931F9360
:1006D000CF93DF93CDB7DEB75B018A01EDB6FEB6EF
:1006E0008E5F9E4F3C01DC01CD90DC90C114D104A3
:1006F00009F461C0672B09F45EC04115510509F486
:100700005AC0CA016EEF70E00E94810BC8010196C9
:10071000860F971FEDB7FEB7E81BF90B0FB6F894DD
:10072000FEBF0FBEEDBF6DB77EB76F5F7F4F80E03E
:1007300090E0E1E0F0E09924939420E030E0D501EE
:100740008D905D010196AF014F5F5F4FDB0181101E
:1007500005C0A20FB31F9C929F010FC0AE0FBF1F19
:100760008C929394BFEF9B120AC0DB01A20FB31FC0
:100770009C929A01AF014E5F5F4F9924939480172A
:10078000910711F0FA01DBCFFB01E20FF31F90821A
:10079000D601ED91FC910280F381E02DC60109950F
:1007A000F30180819181DC01ED91FC910190F08158
:1007B000E02D60E009950FB6F894FEBE0FBEEDBEC9
:1007C0000FB6F894FEBE0FBEEDBEDF91CF911F9124
:1007D0000F91FF90EF90DF90CF90BF90AF909F90E0
:1007E0008F907F906F90089580937D04823039F5CB
:1007F0009091AE048091AF0490937E0480937F0427
:100800008091B004809380048091B104809381042E
:100810008091B204809382048091B3048093830416
:10082000EEE7F4E082E094E0E438F90719F0919102
:100830008927F9CF80937C0448E050E06EC0811195
:1008400007C080917E0480937C0443E050E065C043
:10085000833009F068C08091B80480937E04809151
:10086000B90480937F048091BA04809380048091BE
:10087000BB04809381048091BC04809382048091A6
:10088000BD04809383048091BE048093840480918E
:10089000BF04809385048091C00480938604809176
:1008A000C104809387048091C2048093880480915E
:1008B000C304809389048091C40480938A04809146
:1008C000C50480938B048091C60480938C0480912E
:1008D000C70480938D048091C80480938E04809116
:1008E000C90480938F048091CA04809390048091FE
:1008F000CB04809391048091CC0480939204EEE722
:10090000F4E083E094E0E339F90719F09191892745
:10091000F9CF80937C0447E150E06CE774E086E710
:1009200093E00C945C030895FC0181819091710324
:10093000891357C02091700330E06217730709F0E4
:1009400050C0DF0112969D012E1B3F0B2617370763
:1009500018F49D918927F7CF9081891342C0828135
:100960008093B80483818093B90484818093BA040E
:1009700085818093BB0486818093BC0487818093AA
:10098000BD0480858093BE0481858093BF048285E9
:100990008093C00483858093C10484858093C204BE
:1009A00085858093C30486858093C404878580935E
:1009B000C50480898093C60481898093C704828995
:1009C0008093C80483898093C90484898093CA046E
:1009D00085898093CB0486898093CC0483E00C9432
:1009E000F40308950E94AF0B1F920F920FB60F925F
:1009F00011242F933F934F935F936F937F938F9324
:100A00009F93AF93BF93EF93FF9387E791E00E948B
:100A1000FF00FF91EF91BF91AF919F918F917F91D7
:100A20006F915F914F913F912F910F900FBE0F905B
:100A30001F9018951F920F920FB60F9211242F93AB
:100A40008F939F93EF93FF93E0918701F09188013B
:100A50008081E0918D01F0918E0182FD12C0908124
:100A6000809190018F5F8F7320919101821751F0D7
:100A7000E0919001F0E0E958FE4F958F809390014E
:100A800001C08081FF91EF919F918F912F910F90E5
:100A90000FBE0F901F9018951F920F920FB60F92D6
:100AA00011242F933F938F939F93AF93BF93809184
:100AB0006D0190916E01A0916F01B0917001309124
:100AC000640123E0230F2D3720F40196A11DB11DF1
:100AD00005C026E8230F0296A11DB11D20936401D5
:100AE00080936D0190936E01A0936F01B09370019C
:100AF0008091650190916601A0916701B0916801B4
:100B00000196A11DB11D8093650190936601A0938C
:100B10006701B0936801BF91AF919F918F913F9111
:100B20002F910F900FBE0F901F9018951F920F924C
:100B30000FB60F9211242F933F934F935F936F93B0
:100B40007F938F939F93AF93BF93EF93FF93E09126
:100B50006B01F0916C01309709F451C0968DA68518
:100B6000B785858591FF04C09C91892329F447C0EE
:100B70009C91892309F043C0A389B4899C918589FC
:100B8000809589238C93868997890197F1F7608DE9
:100B9000718DA685B785558538E020E0CB0101979A
:100BA000F1F7822F90E095958795282F4C9145235A
:100BB00009F02068315091F7868D81FD2095809154
:100BC0006A0190E001968F73992730916901381777
:100BD00049F0A0916A01B0E0AC5DBE4F2C938093C8
:100BE0006A0103C0868D8160868F828D938D019707
:100BF000F1F7A389B4899C918589892B8C93FF9106
:100C0000EF91BF91AF919F918F917F916F915F9184
:100C10004F913F912F910F900FBE0F901F901895FD
:100C200086E191E0909315028093140284E192E0B2
:100C30000C94200310927A011092790188EE93E0CF
:100C4000A0E0B0E080937B0190937C01A0937D01B4
:100C5000B0937E0124E031E0309378012093770156
:100C600025EC30E0309384012093830124EC30E0C4
:100C7000309386012093850120EC30E03093880189
:100C80002093870121EC30E030938A012093890181
:100C900022EC30E030938C0120938B0126EC30E085
:100CA00030938E0120938D0110929001109291014A
:100CB0001092920110929301109277041092760490
:100CC000109279041092780410927B0410927A04A6
:100CD00010923403109233031092360310923503AE
:100CE000109238031092370310926C0320E820937F
:100CF0006D0325E020936E0310926F0327E120938C
:100D0000700361E0609371032BE0209372031092F3
:100D100073032EE1209374036093750310921702FE
:100D2000109216028093180290931902A0931A024F
:100D3000B0931B0286E191E0909315028093140218
:100D400010922B0210922A0210922D0210922C0265
:100D500010922F0210922E02109231021092300245
:100D6000809132028E7F8D7F8093320286958170D2
:100D7000682783E00E94930161E083E00E94DF0125
:100D8000E1EBF0E0E491E0932402EDE9F0E0E4919E
:100D9000F0E0EE0FFF1FEA57FF4F8591949190937B
:100DA00026028093250260E082E00E94DF018091AC
:100DB000320281FD04C061E082E00E94930182E082
:100DC00080932002E0EBF0E0E491E0932102ECE973
:100DD000F0E0E491F0E0EE0FFF1FE057FF4F859148
:100DE000949190932302809322020895CF93DF93EE
:100DF000CDB7DEB7789484B5826084BD84B5816058
:100E000084BD85B5826085BD85B5816085BD8091D5
:100E10006E00816080936E0010928100809181004D
:100E20008260809381008091810081608093810045
:100E3000809180008160809380008091B100846007
:100E40008093B1008091B00081608093B000809168
:100E50007A00846080937A0080917A008260809327
:100E60007A0080917A00816080937A0080917A0084
:100E7000806880937A001092C1008AE393E0909397
:100E80007B0480937A0410922F0210922E0210920B
:100E90002D0210922C0210922B0210922A028DE940
:100EA00091E090933102809330029091200296312C
:100EB00008F057C02DEB30E030932B0220932A022C
:100EC0002BE931E030932D0220932C022CE231E00B
:100ED00030932F0220932E0220916800983050F01A
:100EE00031E09E3008F430E081E001C0880F3A958F
:100EF000EAF701C084E0822B80936800983038F0D4
:100F00009E3040F0963148F020E030E008C02DE6F9
:100F100030E005C02BE630E002C02CE630E0309334
:100F2000280220932702983030F481E001C0880F16
:100F30009A95EAF70EC0292F30E09E3018F4285019
:100F4000310902C02E50310981E001C0880F2A9575
:100F5000EAF7809329028091300290913102019743
:100F6000F1F780912E0290912F02892B21F180912F
:100F70006B0190916C0112E084319107E1F00097D0
:100F800011F00E942003809132028E7F8093320202
:100F900010926A011092690184E192E090936C01D1
:100FA00080936B01E0912702F0912802908180915B
:100FB0002902892B808384E192E0909379048093C5
:100FC000780480E090E0A0E2B1E48093B8049093CC
:100FD000B904A093BA04B093BB041092BC0410925D
:100FE000BD041092BE041092BF041092C00410926F
:100FF000C1041092C2041092C30480E58093C4041B
:101000001092C5041092C6041092C7041092C8042E
:101010001092C9041092CA041092CB041092CC040E
:1010200084E994E09093380380933703E09187013B
:10103000F091880182E08083E0918301F091840146
:101040001082E0918501F09186018FEC80831092EF
:101050008F01E0918B01F0918C0186E08083E0911B
:101060008901F0918A01808180618083E09189010A
:10107000F0918A01808188608083E0918901F091FC
:101080008A01808180688083E0918901F0918A01E2
:1010900080818F7D808387E791E0909336038093F2
:1010A000350361E08CE00E94DF0164E670E080E0DF
:1010B00090E00E94400283E00E94F40361E08CE033
:1010C0000E94930162E370E080E090E00E944002A1
:1010D00060E08CE00E94930183E00E94F4036AE0E8
:1010E00070E080E090E00E94400261E08CE00E94AD
:1010F000930162E370E080E090E00E94400260E0D3
:101100008CE00E9493018824839480E4382E95EF2C
:10111000C92E93E0D92EE12CF12C809135039091CA
:101120003603DC01ED91FC910084F185E02D0995F9
:10113000181619060CF088C080913503909136037B
:10114000DC01ED91FC910284F385E02D099581117C
:1011500066C0A0903703B0903803A114B10409F41D
:1011600059C06DB67EB66091330370913403EDB70C
:10117000FEB7E61BF70B0FB6F894FEBF0FBEEDBF30
:101180008DB79EB701966115710519F460E070E0A6
:101190003AC0E0E0F0E040E050E04617570790F535
:1011A000DA01AD5CBD4F9C909A01290D311D62178B
:1011B000730718F411E09112E9CF4F5F5F4F8C0174
:1011C0000E0F1F1FDF019D012F5F3F4F422E4E1A52
:1011D000491458F4DA01AD5CBD4F5C90D8015D92C2
:1011E0008D01D9014F5F5F4FEECFFD011FEF9116CB
:1011F00039F04617570721F0D901E80FF91F10827F
:10120000FD01CBCFBF01F50109950FB6F8947EBE65
:101210000FBE6DBE10923403109233037ECF209127
:10122000330330913403A9014F5F5F4F4F3F5105A6
:1012300011F008F072CF5093340340933303F90157
:10124000ED5CFD4F808369CF8091CD0487FB8827BB
:1012500080F9909176018917A9F0809376012FB7D4
:10126000F89480916D0190916E01A0916F01B09101
:1012700070012FBF8093720190937301A09374014A
:10128000B09375012FB7F89480916D0190916E0124
:10129000A0916F01B09170012FBF409172015091E8
:1012A00073016091740170917501841B950BA60BFD
:1012B000B70B893E9340A105B10518F0109271015A
:1012C00002C0809271018091B30487FB992790F945
:1012D000982590FB87F98093B30430927C0080912D
:1012E0007A00806480937A0080917A0086FDFCCF3A
:1012F000209178008091790030E0382B2901330F5C
:1013000066087708C301B2010E94F50A23E333E3BC
:1013100043E850E40E94520A0E94C40A60936B039F
:10132000A30192012A50310941095109A8EEB3E005
:101330000E94160AA70196010E94F70957FD07C0EF
:10134000293EF3E03F072CF028EE33E002C020E016
:1013500030E03093AF042093AE0482E00E94F403A7
:101360008091730380933A0390916B0390933C03B5
:101370009091B20490933D039091B00490933E03FA
:101380009091B10490933F03109240031092410357
:1013900010924203109243034091720350E022E006
:1013A00030E02417350740F4F901E75CFC4F9081E9
:1013B00089272F5F3F4FF5CF8093390369E373E0AF
:1013C00083E392E00E945C0380917101882311F015
:1013D00061E001C060E08DE00E94930160E370E095
:1013E00080E090E00E9440020E94890196CE052E86
:1013F00097FB1EF400940E940E0A57FD07D00E942E
:10140000210A07FC03D04EF40C940E0A5095409527
:10141000309521953F4F4F4F5F4F089590958095A0
:10142000709561957F4F8F4F9F4F08950E94430A9B
:10143000A59F900DB49F900DA49F800D911D112428
:101440000895A1E21A2EAA1BBB1BFD010DC0AA1F05
:10145000BB1FEE1FFF1FA217B307E407F50720F01D
:10146000A21BB30BE40BF50B661F771F881F991F98
:101470001A9469F760957095809590959B01AC01E1
:10148000BD01CF010895A29FB001B39FC001A39FEA
:10149000700D811D1124911DB29F700D811D1124AD
:1014A000911D08950E94660A0C94470B0E94400B00
:1014B00058F00E94390B40F029F45F3F29F00C945A
:1014C000300B51110C947B0B0C94360B0E94580B73
:1014D00068F39923B1F3552391F3951B550BBB2763
:1014E000AA2762177307840738F09F5F5F4F220FA8
:1014F000331F441FAA1FA9F335D00E2E3AF0E0E89F
:1015000032D091505040E695001CCAF72BD0FE2FE8
:1015100029D0660F771F881FBB1F2617370748077C
:10152000AB07B0E809F0BB0B802DBF01FF27935834
:101530005F4F3AF09E3F510578F00C94300B0C94BD
:101540007B0B5F3FE4F3983ED4F3869577956795E0
:10155000B795F7959F5FC9F7880F911D9695879569
:1015600097F90895E1E0660F771F881FBB1F621788
:1015700073078407BA0720F0621B730B840BBA0B46
:10158000EE1F88F7E09508950E94600B88F09F5742
:1015900098F0B92F9927B751B0F0E1F0660F771F97
:1015A000881F991F1AF0BA95C9F714C0B13091F08D
:1015B0000E947A0BB1E008950C947A0B672F782F74
:1015C0008827B85F39F0B93FCCF386957795679552
:1015D000B395D9F73EF490958095709561957F4FBE
:1015E0008F4F9F4F0895E89409C097FB3EF4909564
:1015F0008095709561957F4F8F4F9F4F9923A9F0EC
:10160000F92F96E9BB279395F6958795779567957A
:10161000B795F111F8CFFAF4BB0F11F460FF1BC0BE
:101620006F5F7F4F8F4F9F4F16C0882311F096E951
:1016300011C0772321F09EE8872F762F05C06623FF
:1016400071F096E8862F70E060E02AF09A95660FB8
:10165000771F881FDAF7880F9695879597F9089571
:1016600097F99F6780E870E060E008959FEF80EC55
:10167000089500240A9416161706180609060895F8
:1016800000240A9412161306140605060895092E5E
:101690000394000C11F4882352F0BB0F40F4BF2BCD
:1016A00011F460FF04C06F5F7F4F8F4F9F4F08950D
:1016B00057FD9058440F551F59F05F3F71F0479503
:1016C000880F97FB991F61F09F3F79F087950895E8
:1016D000121613061406551FF2CF4695F1DF08C007
:1016E000161617061806991FF1CF86957105610524
:1016F00008940895E894BB2766277727CB0197F9CC
:101700000895AA1BBB1B51E107C0AA1FBB1FA61748
:10171000B70710F0A61BB70B881F991F5A95A9F79A
:1017200080959095BC01CD01089597FB072E16F486
:10173000009407D077FD09D00E94810B07FC05D0EB
:101740003EF4909581959F4F0895709561957F4FD8
:101750000895EE0FFF1F0590F491E02D099481E0AC
:1017600090E0F8940C94B40B10E0C2E6D0E004C012
:10177000FE010E94A90B2196C336D107C9F7F89440
:02178000FFCF99
:101782000000000020018D00B8006701E900C700D9
:10179200DB000000000093028D0037039202E70293
:0417A200FF027A02C6
:107E0000112484B714BE81FFF0D085E080938100F7
:107E100082E08093C00088E18093C10086E0809377
:107E2000C20080E18093C4008EE0C9D0259A86E02C
:107E300020E33CEF91E0309385002093840096BBD3
:107E4000B09BFECF1D9AA8958150A9F7CC24DD24C4
:107E500088248394B5E0AB2EA1E19A2EF3E0BF2EE7
:107E6000A2D0813461F49FD0082FAFD0023811F036
:107E7000013811F484E001C083E08DD089C08234E0
:107E800011F484E103C0853419F485E0A6D080C0E4
:107E9000853579F488D0E82EFF2485D0082F10E0AE
:107EA000102F00270E291F29000F111F8ED06801E7
:107EB0006FC0863521F484E090D080E0DECF843638
:107EC00009F040C070D06FD0082F6DD080E0C81688
:107ED00080E7D80618F4F601B7BEE895C0E0D1E017
:107EE00062D089930C17E1F7F0E0CF16F0E7DF06D8
:107EF00018F0F601B7BEE89568D007B600FCFDCFD4
:107F0000A601A0E0B1E02C9130E011968C91119780
:107F100090E0982F8827822B932B1296FA010C0160
:107F200087BEE89511244E5F5F4FF1E0A038BF0790
:107F300051F7F601A7BEE89507B600FCFDCF97BE46
:107F4000E89526C08437B1F42ED02DD0F82E2BD052
:107F50003CD0F601EF2C8F010F5F1F4F84911BD097
:107F6000EA94F801C1F70894C11CD11CFA94CF0C13
:107F7000D11C0EC0853739F428D08EE10CD085E9AC
:107F80000AD08FE07ACF813511F488E018D01DD067
:107F900080E101D065CF982F8091C00085FFFCCF94
:107FA0009093C60008958091C00087FFFCCF809118
:107FB000C00084FD01C0A8958091C6000895E0E648
:107FC000F0E098E1908380830895EDDF803219F02E
:107FD00088E0F5DFFFCF84E1DECF1F93182FE3DFCA
:107FE0001150E9F7F2DF1F91089580E0E8DFEE27F6
:047FF000FF270994CA
:027FFE00040479
:0400000300007E007B
:00000001FF